{
  "_format": "hh-sol-artifact-1",
  "contractName": "StandardToken",
  "sourceName": "contracts/StandardToken.sol",
  "abi": [
    {
      "inputs": [
        {
          "internalType": "string",
          "name": "name_",
          "type": "string"
        },
        {
          "internalType": "string",
          "name": "symbol_",
          "type": "string"
        },
        {
          "internalType": "uint8",
          "name": "decimals_",
          "type": "uint8"
        },
        {
          "internalType": "uint256",
          "name": "totalSupply_",
          "type": "uint256"
        },
        {
          "internalType": "address",
          "name": "serviceFeeReceiver_",
          "type": "address"
        },
        {
          "internalType": "uint256",
          "name": "serviceFee_",
          "type": "uint256"
        }
      ],
      "stateMutability": "payable",
      "type": "constructor"
    },
    {
      "anonymous": false,
      "inputs": [
        {
          "indexed": true,
          "internalType": "address",
          "name": "owner",
          "type": "address"
        },
        {
          "indexed": true,
          "internalType": "address",
          "name": "spender",
          "type": "address"
        },
        {
          "indexed": false,
          "internalType": "uint256",
          "name": "value",
          "type": "uint256"
        }
      ],
      "name": "Approval",
      "type": "event"
    },
    {
      "anonymous": false,
      "inputs": [
        {
          "indexed": true,
          "internalType": "address",
          "name": "previousOwner",
          "type": "address"
        },
        {
          "indexed": true,
          "internalType": "address",
          "name": "newOwner",
          "type": "address"
        }
      ],
      "name": "OwnershipTransferred",
      "type": "event"
    },
    {
      "anonymous": false,
      "inputs": [
        {
          "indexed": true,
          "internalType": "address",
          "name": "owner",
          "type": "address"
        },
        {
          "indexed": true,
          "internalType": "address",
          "name": "token",
          "type": "address"
        },
        {
          "indexed": false,
          "internalType": "enum TokenType",
          "name": "tokenType",
          "type": "uint8"
        },
        {
          "indexed": false,
          "internalType": "uint256",
          "name": "version",
          "type": "uint256"
        }
      ],
      "name": "TokenCreated",
      "type": "event"
    },
    {
      "anonymous": false,
      "inputs": [
        {
          "indexed": true,
          "internalType": "address",
          "name": "from",
          "type": "address"
        },
        {
          "indexed": true,
          "internalType": "address",
          "name": "to",
          "type": "address"
        },
        {
          "indexed": false,
          "internalType": "uint256",
          "name": "value",
          "type": "uint256"
        }
      ],
      "name": "Transfer",
      "type": "event"
    },
    {
      "inputs": [],
      "name": "VERSION",
      "outputs": [
        {
          "internalType": "uint256",
          "name": "",
          "type": "uint256"
        }
      ],
      "stateMutability": "view",
      "type": "function"
    },
    {
      "inputs": [
        {
          "internalType": "address",
          "name": "owner",
          "type": "address"
        },
        {
          "internalType": "address",
          "name": "spender",
          "type": "address"
        }
      ],
      "name": "allowance",
      "outputs": [
        {
          "internalType": "uint256",
          "name": "",
          "type": "uint256"
        }
      ],
      "stateMutability": "view",
      "type": "function"
    },
    {
      "inputs": [
        {
          "internalType": "address",
          "name": "spender",
          "type": "address"
        },
        {
          "internalType": "uint256",
          "name": "amount",
          "type": "uint256"
        }
      ],
      "name": "approve",
      "outputs": [
        {
          "internalType": "bool",
          "name": "",
          "type": "bool"
        }
      ],
      "stateMutability": "nonpayable",
      "type": "function"
    },
    {
      "inputs": [
        {
          "internalType": "address",
          "name": "account",
          "type": "address"
        }
      ],
      "name": "balanceOf",
      "outputs": [
        {
          "internalType": "uint256",
          "name": "",
          "type": "uint256"
        }
      ],
      "stateMutability": "view",
      "type": "function"
    },
    {
      "inputs": [],
      "name": "decimals",
      "outputs": [
        {
          "internalType": "uint8",
          "name": "",
          "type": "uint8"
        }
      ],
      "stateMutability": "view",
      "type": "function"
    },
    {
      "inputs": [
        {
          "internalType": "address",
          "name": "spender",
          "type": "address"
        },
        {
          "internalType": "uint256",
          "name": "subtractedValue",
          "type": "uint256"
        }
      ],
      "name": "decreaseAllowance",
      "outputs": [
        {
          "internalType": "bool",
          "name": "",
          "type": "bool"
        }
      ],
      "stateMutability": "nonpayable",
      "type": "function"
    },
    {
      "inputs": [
        {
          "internalType": "address",
          "name": "spender",
          "type": "address"
        },
        {
          "internalType": "uint256",
          "name": "addedValue",
          "type": "uint256"
        }
      ],
      "name": "increaseAllowance",
      "outputs": [
        {
          "internalType": "bool",
          "name": "",
          "type": "bool"
        }
      ],
      "stateMutability": "nonpayable",
      "type": "function"
    },
    {
      "inputs": [],
      "name": "name",
      "outputs": [
        {
          "internalType": "string",
          "name": "",
          "type": "string"
        }
      ],
      "stateMutability": "view",
      "type": "function"
    },
    {
      "inputs": [],
      "name": "owner",
      "outputs": [
        {
          "internalType": "address",
          "name": "",
          "type": "address"
        }
      ],
      "stateMutability": "view",
      "type": "function"
    },
    {
      "inputs": [],
      "name": "renounceOwnership",
      "outputs": [],
      "stateMutability": "nonpayable",
      "type": "function"
    },
    {
      "inputs": [],
      "name": "symbol",
      "outputs": [
        {
          "internalType": "string",
          "name": "",
          "type": "string"
        }
      ],
      "stateMutability": "view",
      "type": "function"
    },
    {
      "inputs": [],
      "name": "totalSupply",
      "outputs": [
        {
          "internalType": "uint256",
          "name": "",
          "type": "uint256"
        }
      ],
      "stateMutability": "view",
      "type": "function"
    },
    {
      "inputs": [
        {
          "internalType": "address",
          "name": "recipient",
          "type": "address"
        },
        {
          "internalType": "uint256",
          "name": "amount",
          "type": "uint256"
        }
      ],
      "name": "transfer",
      "outputs": [
        {
          "internalType": "bool",
          "name": "",
          "type": "bool"
        }
      ],
      "stateMutability": "nonpayable",
      "type": "function"
    },
    {
      "inputs": [
        {
          "internalType": "address",
          "name": "sender",
          "type": "address"
        },
        {
          "internalType": "address",
          "name": "recipient",
          "type": "address"
        },
        {
          "internalType": "uint256",
          "name": "amount",
          "type": "uint256"
        }
      ],
      "name": "transferFrom",
      "outputs": [
        {
          "internalType": "bool",
          "name": "",
          "type": "bool"
        }
      ],
      "stateMutability": "nonpayable",
      "type": "function"
    },
    {
      "inputs": [
        {
          "internalType": "address",
          "name": "newOwner",
          "type": "address"
        }
      ],
      "name": "transferOwnership",
      "outputs": [],
      "stateMutability": "nonpayable",
      "type": "function"
    }
  ],
  "bytecode": "0x60806040526040516200100c3803806200100c83398101604081905262000026916200040a565b620000313362000128565b85516200004690600390602089019062000297565b5084516200005c90600490602088019062000297565b506005805460ff191660ff86161790556200008a620000836000546001600160a01b031690565b8462000178565b306200009e6000546001600160a01b031690565b6001600160a01b03167f56358b41df5fa59f5639228f0930994cbdde383c8a8fd74e06c04e1deebe356260006001604051620000dc929190620004c2565b60405180910390a36040516001600160a01b0383169082156108fc029083906000818181858888f193505050501580156200011b573d6000803e3d6000fd5b5050505050505062000553565b600080546001600160a01b038381166001600160a01b0319831681178455604051919092169283917f8be0079c531659141344cd1fd0a4f28419497f9722a3daafe3b4186f6b6457e09190a35050565b6001600160a01b038216620001d35760405162461bcd60e51b815260206004820152601f60248201527f45524332303a206d696e7420746f20746865207a65726f206164647265737300604482015260640160405180910390fd5b620001ef816006546200028260201b620005401790919060201c565b6006556001600160a01b038216600090815260016020908152604090912054620002249183906200054062000282821b17901c565b6001600160a01b0383166000818152600160205260408082209390935591519091907fddf252ad1be2c89b69c2b068fc378daa952ba7f163c4a11628f55a4df523b3ef90620002769085815260200190565b60405180910390a35050565b6000620002908284620004ef565b9392505050565b828054620002a59062000516565b90600052602060002090601f016020900481019282620002c9576000855562000314565b82601f10620002e457805160ff191683800117855562000314565b8280016001018555821562000314579182015b8281111562000314578251825591602001919060010190620002f7565b506200032292915062000326565b5090565b5b8082111562000322576000815560010162000327565b634e487b7160e01b600052604160045260246000fd5b600082601f8301126200036557600080fd5b81516001600160401b03808211156200038257620003826200033d565b604051601f8301601f19908116603f01168101908282118183101715620003ad57620003ad6200033d565b81604052838152602092508683858801011115620003ca57600080fd5b600091505b83821015620003ee5785820183015181830184015290820190620003cf565b83821115620004005760008385830101525b9695505050505050565b60008060008060008060c087890312156200042457600080fd5b86516001600160401b03808211156200043c57600080fd5b6200044a8a838b0162000353565b975060208901519150808211156200046157600080fd5b506200047089828a0162000353565b955050604087015160ff811681146200048857600080fd5b6060880151608089015191955093506001600160a01b0381168114620004ad57600080fd5b8092505060a087015190509295509295509295565b6040810160088410620004e557634e487b7160e01b600052602160045260246000fd5b9281526020015290565b600082198211156200051157634e487b7160e01b600052601160045260246000fd5b500190565b600181811c908216806200052b57607f821691505b602082108114156200054d57634e487b7160e01b600052602260045260246000fd5b50919050565b610aa980620005636000396000f3fe608060405234801561001057600080fd5b50600436106100f55760003560e01c8063715018a611610097578063a9059cbb11610066578063a9059cbb146101f1578063dd62ed3e14610204578063f2fde38b1461023d578063ffa1ad741461025057600080fd5b8063715018a6146101b15780638da5cb5b146101bb57806395d89b41146101d6578063a457c2d7146101de57600080fd5b806323b872dd116100d357806323b872dd1461014d578063313ce56714610160578063395093511461017557806370a082311461018857600080fd5b806306fdde03146100fa578063095ea7b31461011857806318160ddd1461013b575b600080fd5b610102610258565b60405161010f919061087a565b60405180910390f35b61012b6101263660046108eb565b6102ea565b604051901515815260200161010f565b6006545b60405190815260200161010f565b61012b61015b366004610915565b610300565b60055460405160ff909116815260200161010f565b61012b6101833660046108eb565b610369565b61013f610196366004610951565b6001600160a01b031660009081526001602052604090205490565b6101b961039f565b005b6000546040516001600160a01b03909116815260200161010f565b61010261040a565b61012b6101ec3660046108eb565b610419565b61012b6101ff3660046108eb565b610468565b61013f61021236600461096c565b6001600160a01b03918216600090815260026020908152604080832093909416825291909152205490565b6101b961024b366004610951565b610475565b61013f600181565b6060600380546102679061099f565b80601f01602080910402602001604051908101604052809291908181526020018280546102939061099f565b80156102e05780601f106102b5576101008083540402835291602001916102e0565b820191906000526020600020905b8154815290600101906020018083116102c357829003601f168201915b5050505050905090565b60006102f7338484610553565b50600192915050565b600061030d848484610678565b61035f843361035a85604051806060016040528060288152602001610a27602891396001600160a01b038a16600090815260026020908152604080832033845290915290205491906107fe565b610553565b5060019392505050565b3360008181526002602090815260408083206001600160a01b038716845290915281205490916102f791859061035a9086610540565b6000546001600160a01b031633146103fe5760405162461bcd60e51b815260206004820181905260248201527f4f776e61626c653a2063616c6c6572206973206e6f7420746865206f776e657260448201526064015b60405180910390fd5b610408600061082a565b565b6060600480546102679061099f565b60006102f7338461035a85604051806060016040528060258152602001610a4f602591393360009081526002602090815260408083206001600160a01b038d16845290915290205491906107fe565b60006102f7338484610678565b6000546001600160a01b031633146104cf5760405162461bcd60e51b815260206004820181905260248201527f4f776e61626c653a2063616c6c6572206973206e6f7420746865206f776e657260448201526064016103f5565b6001600160a01b0381166105345760405162461bcd60e51b815260206004820152602660248201527f4f776e61626c653a206e6577206f776e657220697320746865207a65726f206160448201526564647265737360d01b60648201526084016103f5565b61053d8161082a565b50565b600061054c82846109da565b9392505050565b6001600160a01b0383166105b55760405162461bcd60e51b8152602060048201526024808201527f45524332303a20617070726f76652066726f6d20746865207a65726f206164646044820152637265737360e01b60648201526084016103f5565b6001600160a01b0382166106165760405162461bcd60e51b815260206004820152602260248201527f45524332303a20617070726f766520746f20746865207a65726f206164647265604482015261737360f01b60648201526084016103f5565b6001600160a01b0383811660008181526002602090815260408083209487168084529482529182902085905590518481527f8c5be1e5ebec7d5bd14f71427d1e84f3dd0314c0f7b2291e5b200ac8c7c3b92591015b60405180910390a3505050565b6001600160a01b0383166106dc5760405162461bcd60e51b815260206004820152602560248201527f45524332303a207472616e736665722066726f6d20746865207a65726f206164604482015264647265737360d81b60648201526084016103f5565b6001600160a01b03821661073e5760405162461bcd60e51b815260206004820152602360248201527f45524332303a207472616e7366657220746f20746865207a65726f206164647260448201526265737360e81b60648201526084016103f5565b61077b81604051806060016040528060268152602001610a01602691396001600160a01b03861660009081526001602052604090205491906107fe565b6001600160a01b0380851660009081526001602052604080822093909355908416815220546107aa9082610540565b6001600160a01b0380841660008181526001602052604090819020939093559151908516907fddf252ad1be2c89b69c2b068fc378daa952ba7f163c4a11628f55a4df523b3ef9061066b9085815260200190565b600081848411156108225760405162461bcd60e51b81526004016103f5919061087a565b505050900390565b600080546001600160a01b038381166001600160a01b0319831681178455604051919092169283917f8be0079c531659141344cd1fd0a4f28419497f9722a3daafe3b4186f6b6457e09190a35050565b600060208083528351808285015260005b818110156108a75785810183015185820160400152820161088b565b818111156108b9576000604083870101525b50601f01601f1916929092016040019392505050565b80356001600160a01b03811681146108e657600080fd5b919050565b600080604083850312156108fe57600080fd5b610907836108cf565b946020939093013593505050565b60008060006060848603121561092a57600080fd5b610933846108cf565b9250610941602085016108cf565b9150604084013590509250925092565b60006020828403121561096357600080fd5b61054c826108cf565b6000806040838503121561097f57600080fd5b610988836108cf565b9150610996602084016108cf565b90509250929050565b600181811c908216806109b357607f821691505b602082108114156109d457634e487b7160e01b600052602260045260246000fd5b50919050565b600082198211156109fb57634e487b7160e01b600052601160045260246000fd5b50019056fe45524332303a207472616e7366657220616d6f756e7420657863656564732062616c616e636545524332303a207472616e7366657220616d6f756e74206578636565647320616c6c6f77616e636545524332303a2064656372656173656420616c6c6f77616e63652062656c6f77207a65726fa2646970667358221220a4523e27440af04dcd25ca4d4bbb6d72b4bf02a430a03d02c906d7f7eefc57b264736f6c63430008090033",
  "linkReferences": {},
  "deployedLinkReferences": {}
}